:1000000000800020B1010000DD010000DD010000E2
:10001000DD010000DD010000DD010000DD01000068
:10002000DD010000DD010000DD010000DD01000058
:10003000DD010000DD010000DD010000D11900003C
:1000400091030000DD010000DD010000DD01000082
:10005000DD010000DD010000DD010000DD01000028
:10006000DD010000DD01000075260000DD0100005B
:10007000DD010000DD010000DD010000DD01000008
:10008000DD010000DD010000DD010000DD010000F8
:10009000DD010000DD010000DD010000DD010000E8
:1000A000DD010000DD010000DD010000DD010000D8
:1000B000DD010000DD010000DD010000DD010000C8
:1000C000DD010000DD010000DD010000DD010000B8
:1000D000DD010000DD010000DD010000DD010000A8
:1000E00010B5054C237833B9044B13B10448AFF372
:1000F00000800123237010BD8C0000200000000050
:10010000004A0000084B10B51BB108480849AFF37E
:1001100000800848036803B910BD074B002BFBD0D3
:10012000BDE81040184700BF00000000004A000072
:10013000900000208800002000000000154B002BDC
:1001400008BF134B9D46A3F5803A00218B460F460E
:100150001348144A121A03F0D8F90F4B002B00D0A1
:1001600098470E4B002B00D0984700200021040038
:100170000D000D48002802D00C48AFF3008003F0BA
:1001800093F92000290003F035F803F079F900BF56
:1001900000000800008000200000000000000000B7
:1001A0008C000020E400002000000000000000009F
:1001B000064880470649074A074B9A42BEBF51F896
:1001C000040B42F8040BF8E7FFF7B8FF3103000017
:1001D0000C4A0000000000208C000020FEE700BF59
:1001E00080B400AF044BDB6C1B0EDBB21846BD467F
:1001F0005DF8047B704700BFB081E00F80B582B02E
:1002000000AF00F015F87860074B5B6803F00F0350
:100210001A467B68D3407B60044A7B6813607B6826
:1002200018460837BD4680BD00800C40DC00002029
:1002300080B582B000AF334BDB6A03F47053B3F583
:10024000805F0AD0B3F5005F03D0B3F5006F08D02C
:100250000BE02D4B1B687B6047E04FF400437B6055
:1002600043E02A4B1B687B603FE0264BDB6803F4CE
:10027000E063B3F5007F1BD0B3F5007F05D8002BFA
:1002800024D0B3F5807F16D02BE0B3F5806F09D072
:10029000B3F5A06F03D0B3F5407F06D021E01C4B2F
:1002A0007B6021E01B4B7B601EE01B4B7B601BE0F7
:1002B0001A4B7B6018E0FFF793FF0346122B02D91D
:1002C000174B7B6010E0174B7B600DE0FFF788FF5A
:1002D0000346122B02D9144B7B6005E0134B7B6065
:1002E00002E000237B6000BF00BF064B1B6803F4E5
:1002F000E0339B0B01337A68B2FBF3F318460837FF
:10030000BD4680BD00800C4004000020000000209D
:10031000003FAB01406F4001809FD500C0D8A700CF
:1003200040B56400C0CF6A00804F120040420F0009
:1003300080B400AF054A054BD3F8883043F470030E
:10034000C2F88830BD465DF8047B704700ED00E0E0
:1003500080B400AF4FF400431846BD465DF8047BFF
:10036000704700BF80B400AF4FF47A731846BD46A3
:100370005DF8047B704700BF80B400AF034B1B687F
:100380001846BD465DF8047B704700BF040000209E
:1003900080B58AB000AF334B03F580531B68BB6157
:1003A000304B03F580530C331B68BA691340BB61B3
:1003B0002C4B9B6B7B61BA697B6913403B620023CA
:1003C000FB6149E000237B623BE03B6A03F00103F1
:1003D000002B30D0234B9B683B6101227B6A02FAE1
:1003E00003F3FB601F4B03F580530833FA681A6070
:1003F0007B6A1B013A691344DB68BB60BB68002B56
:1004000019D0BB681B7A7B60BB681B7A83F0010341
:10041000DAB2BB681A72BB681B68002B0BD0BB68D2
:100420001B68786A7A68002A14BF01220022D1B2C0
:10043000BA68526898473B6A5B083B627B6A013343
:100440007B623B6A002BC0D17B69DA43BB691340F6
:100450003B62FB690133FB61FB69012BB2DD28378D
:10046000BD4680BD00200C4080B485B000AFF86070
:10047000B9607A60FB681A68BB68DB431A407B6826
:100480001A43FB681A601437BD465DF8047B704759
:1004900080B586B000AFF860B9607A60BB68002BA9
:1004A00003D1164800F0FAFAB860BB685B007B61C4
:1004B0007A687B691344013B7B617A697B68B2FB94
:1004C000F3F37B617B69043B7B617B699B017B610F
:1004D0007B69C0337B617B6923F0FF037B617A69B1
:1004E000074B13407B61FB681433184604497A6953
:1004F000FFF7BAFF1837BD4680BD00BF408104003A
:10050000C0FF1F0080B582B000AF786039607B68A3
:100510002C4A934207D07B682B4A934203D07B68D6
:100520002A4A934200D100BF786800F051F87B68F6
:100530001A683B681B8A43F001039BB219463B686B
:100540009B7B002B02D04FF4806300E000230B4321
:100550001A437B681A607B681A683B681B7D002B16
:1005600002D04FF0005300E000231A437B681A606A
:100570003B689B7C002B07D03B68DB7C43F010037F
:10058000DBB21A467B689A653B681B7B43F480525A
:100590007B685A603B685A683B689B68786811467C
:1005A0001A46FFF775FF3B685B7B002B02D07B6828
:1005B0001022DA603B681B781A467B68DA600837DD
:1005C000BD4680BD00C0004000C4004000C80040DF
:1005D00080B483B000AF78607B68204A934207D034
:1005E0007B681F4A934203D07B681E4A934200D126
:1005F00000BF7B6840F6AA62DA607B6800221A605E
:100600007B6841F205025A607B6800229A607B6831
:1006100000225A617B680022DA647B6841F6F97235
:100620009A647B6800225A657B680C4A934202D127
:100630007B6800221A657B6800229A657B68084AFD
:10064000934203D07B68074A934202D17B68002221
:10065000DA650C37BD465DF8047B704700C000408A
:1006600000C4004000C8004080B483B000AF786090
:100670000B46FB7000BF7B681B6903F04003002B37
:10068000F9D0FA787B685A6300BF7B681B6903F076
:100690002003002BF9D07B68DB69DBB218460C37EE
:1006A000BD465DF8047B704780B487B000AFF8604A
:1006B000B9607A60FB6803F10473DA00BB68134425
:1006C0009B007B617B697A681A601C37BD465DF8C8
:1006D000047B704780B485B000AF786039607B6878
:1006E00003F10473DA003B6813449B00FB60FB6872
:1006F0001B6818461437BD465DF8047B704700BF81
:1007000080B485B000AF78607B68002B04D07B6834
:10071000B3F5004F00D800BF7B68B3FA83F3C3F191
:100720001F03FB60FB6818461437BD465DF8047B69
:10073000704700BF80B400AF044BDB6C1B0EDBB214
:100740001846BD465DF8047B704700BFB081E00FDE
:1007500080B584B000AF786039607A683B689A42AF
:100760008CBF01230023DBB2FB6006481E21FA6820
:10077000FFF79AFF04480821FA68FFF795FF103742
:10078000BD4680BD00800C4004800C4080B582B026
:1007900000AF07481E21FFF79DFF7860054808213C
:1007A000FFF798FF38607B6818460837BD4680BD64
:1007B00000800C4004800C4080B582B000AF214B1B
:1007C0005B6903F4E063B3F5007F1CD0B3F5007FF1
:1007D00005D8002B25D0B3F5807F1FD02AE0B3F5D4
:1007E000C06F24D0B3F5E06F1ED0B3F5407F21D1A8
:1007F000FFF7A0FF0346122B02D9134B7B601CE0CE
:10080000124B7B6019E0FFF795FF0346122B02D9CC
:100810000F4B7B6011E00F4B7B600EE00E4B7B605B
:100820000BE00E4B7B6008E00D4B7B6005E00D4B51
:100830007B6002E000237B6000BF7B6818460837BE
:10084000BD4680BD00800C40804F120040420F002A
:1008500040B56400C0CF6A00C0D8A700809FD50013
:10086000406F4001003FAB0180B582B000AF0D4842
:1008700000F0F8F90346FB70FB78072B05D0082B36
:1008800007D1FFF7D5FC786006E0FFF795FF7860A9
:1008900002E000237B6000BF7B6818460837BD4636
:1008A00080BD00BF06000C0090B585B000AF786039
:1008B0000023BB607B68344A934203D0334A93429F
:1008C00000D000E000BF786800F0CCF90346FB6080
:1008D0007B682D4A934203D02C4A934206D00CE009
:1008E0002B4B9B6A03F00303FB6006E0284B9B6ADB
:1008F00003F00C039B08FB6000BFFB68032B3AD896
:1009000001A252F823F000BF3F09000019090000BE
:100910002109000029090000FFF71AFDB8602DE049
:10092000FFF72AFDB86029E0FFF768FC0446FFF7EF
:100930002DFF0346013324FA03F3BB601EE00023BE
:10094000BB607B68104A934203D07B680F4A934296
:1009500010D10F4B9A6A7B680B498B4201D110234F
:1009600000E0142322FA03F3002B03D0FFF7FAFC74
:10097000B86003E002E00023BB6000BFBB6818461C
:100980001437BD4690BD00BF02001A0003001C00D2
:1009900000800C4080B483B000AF7860094B5B6D81
:1009A00003F00103002B00D006E000BF054B1A6DD9
:1009B0007B681340002BF9D10C37BD465DF8047BF2
:1009C000704700BF00800C4080B586B000AF7860F3
:1009D0000B46FB7000233B617B681B0A03F00F038F
:1009E000013B092B46D801A252F823F02B0A000044
:1009F000310A0000150A0000750A0000750A00009F
:100A0000370A0000410A0000750A0000750A00005C
:100A10004B0A0000194B7B61194800F03FF8034670
:100A200018461849FFF794FE12E0174B7B610FE060
:100A3000164B7B610CE0164B7B6101233B6107E0A9
:100A4000144B7B6110233B6102E0134B7B6100BFC1
:100A50007B681B0B03F01F03FB603B69002B02D07C
:100A60003869FFF797FFFB787869F9681A46FFF74E
:100A70001BFE00E000BF1837BD4680BD40800C4023
:100A80000043020000366E0108800C4044800C4098
:100A900058800C4060800C4078800C4090B585B048
:100AA00000AF78607B6803F47813B3F5A01F5DD0C6
:100AB000B3F5A01F17D8B3F5802F34D0B3F5802F2E
:100AC00005D8002B2BD0B3F5003F38D0BBE0B3F5F1
:100AD000602F00F0B480B3F5801F39D0B3F5402FFC
:100AE00000F0A980AFE0B3F5E01F00F08480B3F51B
:100AF000E01F0AD8B3F5C01F00F08F80B3F5D01FF8
:100B000021D0B3F5B01F7BD09DE0B3F5201F4ED0B0
:100B1000B3F5281F62D0B3F5181F35D093E0FFF767
:100B200087FBF86092E0FFF783FBF8604A4B9B6815
:100B300003F00F031A46FB68D340FB6086E0FFF723
:100B40005DFBF86082E04548FFF7AEFEF8607DE0AF
:100B50004248FFF7A9FEF8603F4B9B6E03F0F0039D
:100B60001B091A46FB68D340FB606FE03B48FFF768
:100B70009BFEF860384B9B6E03F470631B0A1A46A9
:100B8000FB68D340FB6061E03448FFF78DFEF860FE
:100B9000314B9B6E03F440531C0B1020FFF7B0FD4C
:100BA000034623441A46FB68D340FB604EE02B48C3
:100BB000FFF77AFEF860284B9B6E03F440531B0B43
:100BC0001A46FB68D340FB60234BDB6F03F007033F
:100BD0000133FA68B2FBF3F3FB6037E01F48FFF71D
:100BE00063FEF8601C4B9B6E03F003031A46FB6820
:100BF000D340FB602AE01A48FFF756FEF86025E074
:100C00001748FFF751FEF860134B1B6F03F0030307
:100C10001A46FB68D340FB6018E01148FFF744FE1A
:100C2000F8600D4B1B6F03F030031B091A46FB687D
:100C3000D340FB600AE0FFF717FEF86006E0FFF71D
:100C4000BBFDF86002E00023FB6000BFFB681846B4
:100C50001437BD4690BD00BF00800C4002001A0052
:100C600003001C0080B485B000AF78600123FB73E3
:100C70007B6803F00F03BB60BB68013B052B77D893
:100C800001A252F823F000BFA10C0000D70C000015
:100C9000130D0000710D0000710D00004F0D0000DC
:100CA000384BDB6A03F47053B3F5805F09D0B3F5BA
:100CB000005F03D0B3F5006F06D008E00223FB739A
:100CC00008E00323FB7305E00423FB7302E0052324
:100CD000FB7300BF4FE02B4B9B6A03F00303022B17
:100CE00006D0032B07D0012B08D10323FB730FE0A1
:100CF0000223FB730CE00623FB7309E0214B9B6A84
:100D000003F48033002B02D00923FB7300E000BF03
:100D100031E01C4B9B6A03F00C03082B06D00C2B14
:100D200007D0042B08D10323FB730FE00223FB73CE
:100D30000CE00623FB7309E0124B9B6A03F480135B
:100D4000002B02D00923FB7300E000BF13E00D4B22
:100D50001B6803F08053002B03D0B3F1805F03D0F6
:100D600009E00723FB7302E00823FB7300BF02E0E6
:100D70000023FB7300BFFB7B18461437BD465DF8AC
:100D8000047B704700800C4080B483B000AF034602
:100D90003960FB71FB79002B0DD0FB79012B0AD058
:100DA000FB79022B07D0FB79032B04D0FB79042BB2
:100DB00001D0FB79052B0949FA793B68012000FA3B
:100DC00003F318461346DB0013449B000B44103317
:100DD00058600C37BD465DF8047B704700600040EA
:100DE00080B483B000AF03463960FB71FB79002B00
:100DF0000DD0FB79012B0AD0FB79022B07D0FB79B0
:100E0000032B04D0FB79042B01D0FB79052B094976
:100E1000FA793B68012000FA03F318461346DB0019
:100E200013449B000B44103318600C37BD465DF82B
:100E3000047B70470060004090B585B000AFB9609A
:100E40007B600346FB731346BB73FB7B002B0DD00B
:100E5000FB7B012B0AD0FB7B022B07D0FB7B032BF8
:100E600004D0FB7B042B01D0FB7B052BBB7B002B31
:100E70000DD07B68002B05D0FB7B1846B968FFF7C7
:100E8000AFFF04E0FB7B1846B968FFF77DFFBB6846
:100E9000072B1CD82A4CFA7B2948F97B0B46DB0030
:100EA0000B449B0003445B68B968890008460F2126
:100EB0008140C9430B40B97BB86880008140194329
:100EC0001346DB0013449B002344596024E01C4C70
:100ED000FA7B1B48F97B0B46DB000B449B00034469
:100EE00008331968BB6803F18043083B9B00184630
:100EF0000F238340DB431940B87BBB6803F1804379
:100F0000083B9B0000FA03F319431346DB0013442C
:100F10009B00234408331960BB7B002B0DD17B68F9
:100F2000002B05D0FB7B1846B968FFF759FF04E09A
:100F3000FB7B1846B968FFF727FF1437BD4690BD05
:100F40000060004080B487B000AFF860B9607A609C
:100F5000FB6803F10473DA00BB6813449B007B61F8
:100F60007B697A681A601C37BD465DF8047B704760
:100F700080B485B000AFF860B9607A60FB681A6829
:100F8000BB68DB431A407B681A43FB681A6014375E
:100F9000BD465DF8047B704780B588B000AFF8604F
:100FA000B9607A60FB707B68002B00D15EE0FB6863
:100FB0001B6823F44072FB681A60FA68FB781B0216
:100FC00010464FF440711A46FFF7D2FFBB68002B62
:100FD00003D12848FFF762FDB8604FF0FF33BB61D3
:100FE000FB681B6803F00203002B11D0FB78012B78
:100FF00007D0022B08D0002B00D019E01E4BBB619C
:1010000005E01E4BBB6102E01D4BBB6100BF0FE062
:10101000FB78012B06D0022B07D0002B08D1194BEF
:10102000BB6105E0184BBB6102E0184BBB6100BF20
:10103000FB78174AD35C7B617B689B00BA68D21A45
:101040007B69796801FB03F3B2FBF3F3013BFB61BE
:10105000FB681B6803F00203002B04D0FB69002B24
:1010600001D10123FB61FA69FB681A612037BD4693
:1010700080BD00BF4081040040164000C0D8A700DA
:101080008050740180841E0040548900002D31017D
:101090003443000080B582B000AF786039607B686F
:1010A000174A934203D07B68164A934200D100BF8F
:1010B0007B6800225A637B68134A1A637A683B682C
:1010C0005B78002B01D0002300E0012310460121B2
:1010D0001A46FFF737FF3B6859683B689A683B68D8
:1010E0001B7B7868FFF758FF7A683B681B781046CF
:1010F00000211A46FFF726FF0837BD4680BD00BF16
:1011000000A0004000A40040CFFF010080B483B0E5
:1011100000AF78607B6800221A607B6800221A6149
:101120007B6800225A617B6800229A617B680022FA
:101130005A637B68034A1A630C37BD465DF8047B2B
:10114000704700BFCFFF010080B489B000AF786066
:101150007B689D4A934203D07B689C4A934200D1AE
:1011600000BF7B68984A934202D1994BBB6108E06B
:101170007B68964A934202D1964BBB6101E0FC2307
:1011800000E2BB699B687B617B689B6A3B613B6952
:1011900003F4C063002B14D03B6903F40073002BED
:1011A00003D0BB69FD225A7007E03B6903F48063FA
:1011B000002B02D0BB69FE225A70BB6909221A704B
:1011C000CCE1BB691B78082B00F2C08101A252F868
:1011D00023F000BFF91100004B120000D1120000F3
:1011E0002313000075130000D913000061140000E0
:1011F0009F140000311500007B695B8803F0100329
:10120000002B09D07B691B881B0A9BB203F00603E5
:1012100043F0F003FB610EE07B691B8803F0FE03E3
:10122000FB617B695B8803F00203002B03D0FB6941
:1012300043F00103FB61BB6901221A707B68FA6904
:101240005A627B6801225A6088E13B6903F080039F
:10125000002B0CD07B6880221A63BB69FF225A7076
:10126000BB6908221A707B6802225A602FE03B6932
:1012700003F04003002B2AD07B6840221A637B696D
:101280005B8803F01003002B08D0BB6902221A70A0
:101290007B691B88DAB27B685A6218E07B695B88DD
:1012A00003F00203002B0ED0BB6907221A70BB6942
:1012B0001B797A69DB0013441B89012B07D17B68FA
:1012C00008225A604AE1BB6905221A7045E145E1EE
:1012D0003B6903F08003002B0CD07B6880221A63EB
:1012E000BB69FF225A70BB6908221A707B68022210
:1012F0005A6015E03B6903F04003002B10D07B6877
:1013000040221A637B695B8803F00203002B03D041
:10131000BB6903221A7020E1BB6905221A701CE127
:101320001CE17B695B8803F01003002B09D07B690B
:101330001B881B0A9BB203F0060343F0F003FB611A
:1013400004E07B691B8803F0FE03FB617B695B881B
:1013500003F00403002B03D0FB6943F00103FB619E
:10136000BB6904221A707B6801225A607B68FA69A3
:101370005A62F3E03B6903F08003002B0CD07B68DA
:1013800080221A63BB69FF225A70BB6908221A7057
:101390007B6802225A6015E03B6903F04003002B92
:1013A00010D07B6840221A637B695B8803F00403DA
:1013B000002B03D0BB6907221A7003E0BB6905222A
:1013C0001A70CAE0CAE000BF00A0004000A40040BC
:1013D000A8000020B4000020BB695A88BB691B79B3
:1013E0007969DB000B441B899A4224D3BB69002234
:1013F0005A80BB691B790133DAB2BB691A717B6908
:101400005B8803F00403002B03D0BB6903221A702E
:10141000A3E07B695B8803F00103002B03D1BB6968
:101420001B79012B06D9BB6908221A707B6802223E
:101430005A6093E091E0BB691B797A69DB00134441
:101440005A68BB695B88591C88B2B96948801344E3
:101450001B781A467B685A62BB6906221A707DE0C7
:101460003B6903F08003002B0CD07B6880221A6359
:10147000BB69FF225A70BB6908221A707B6802227E
:101480005A600BE03B6903F04003002B06D07B68F9
:1014900040221A63BB6905221A705EE05EE03B6978
:1014A00003F02003002B42D0BB691B797A69DB0073
:1014B00013441B89FB607B68DB69FB72BB695B883B
:1014C0001A46FB689A420ED2BB691B797A69DB0027
:1014D00013445A68BB695B88591C88B2B969488053
:1014E0001344FA7A1A70BB695B881A46FB689A4201
:1014F0000CD3FB68012B02D17B6808225A60BB69C0
:1015000008221A707B6802225A6010E07B6804226D
:101510005A60FB68012B0AD9BB695B881A46FB68D5
:10152000013B9A4203D17B6808225A6016E015E01D
:101530003B6903F48073002B07D07B684FF4807203
:101540001A63BB6909221A7008E007E0BB69FB2235
:101550005A70BB6909221A7000E015E6BB691B7856
:10156000092B0BD17B6800225A63BB695B785BB2A5
:10157000012B05D1BB6900225A7001E0012301E073
:10158000BB695B785BB218462437BD465DF8047BC7
:10159000704700BF80B584B000AF03460A46FB71B8
:1015A0001346BB71274AFB795370264ABB79937067
:1015B000254800F09FF8BB79184600F0A7F80020F6
:1015C0000021002200F04AF8002000210022002320
:1015D00000F0D8F800200021002200F0FBF80020E5
:1015E0000021082200F0A0F8164BDB78E52B05D18E
:1015F0000023FB73134B01221A7004E0FF23FB73DB
:10160000104B00221A700F4B5B781048194601F0FE
:1016100085FF0C4B9B780E48194601F07FFF094B64
:101620001B780C48194601F079FF064BDB780A4815
:10163000194601F073FFFB7B5BB218461037BD46BD
:1016400080BD00BF080000200B00002038430000D0
:101650006043000088430000B043000080B586B0BE
:1016600000AFF860B9607A60F868C42101F048FC06
:101670000346DBB2FB75B868C42101F041FC0346A8
:10168000DBB2BB757868C42101F03AFC0346DBB2DB
:101690007B75FB7D1448194601F040FFBB7D134864
:1016A000194601F03BFF7B7D1148194601F036FFDA
:1016B00007F117031E201946012200F0A9F807F1CF
:1016C00016031F201946012200F0A2F807F11503A6
:1016D00020201946012200F09BF800235BB2184637
:1016E0001837BD4680BD00BF2C44000058440000A0
:1016F0008444000080B582B000AF78600020796833
:10170000012200F0F5F80837BD4680BD80B582B0F3
:1017100000AF0346FB71FB1D2C201946012200F08F
:1017200077F80837BD4680BD80B584B000AF03466A
:10173000FB710B46BB7113467B7107F10F032D2024
:101740001946012200F0D4F8FB7B23F00103DBB241
:10175000FB7307F10F032D201946012200F058F802
:10176000FA79BB791343DAB27B791343DBB2FB73AB
:1017700007F10F032D201946012200F049F8103718
:10178000BD4680BD90B585B000AF04460846114601
:101790001A462346FB710346BB710B467B71134609
:1017A0003B71FA79BB791343DAB27B791343DAB22E
:1017B0003B791343DBB243F00B03DBB2FB7307F15E
:1017C0000F0331201946012200F022F81437BD46DC
:1017D00090BD00BF80B584B000AF0346FB710B46DF
:1017E000BB7113467B717B791F2B0ED8FA79BB79BD
:1017F0001343DAB27B791343DBB2FB7307F10F03B8
:1018000038201946012200F003F81037BD4680BD8C
:101810002DE9F04F89B000AF0346B960FB73134662
:10182000BB736B461E46BB7B591C4B1EFB610B46B4
:101830001A464FF00003D8007860786840EA52708A
:101840007860D3003B600B461A464FF000034FEA26
:10185000C30B4BEA527B4FEAC20A0B460733DB0845
:10186000DB00ADEB030D6B460033BB61BB7B591C4A
:101870004B1E7B610B461A464FF000034FEAC3092B
:1018800049EA52794FEAC2080B461A464FF0000364
:10189000DD0045EA5275D4000B460733DB08DB0058
:1018A000ADEB030D6B4600333B61FB7B03F07F0325
:1018B000FB73BB7B012B03D9FB7B43F04003FB7322
:1018C000BB69FA7B1A70BB695A1CBB7B1046B968AE
:1018D0001A4601F00FFEB9693A69BB7B0133DBB2EE
:1018E000062001F00BFAB5462437BD46BDE8F08F5F
:1018F0002DE9F04F89B000AF0346B960FB73134682
:10190000BB736B461E46BB7B591C4B1EFB610B46D3
:101910001A464FF00003D8007860786840EA5270A9
:101920007860D3003B600B461A464FF000034FEA45
:10193000C30B4BEA527B4FEAC20A0B460733DB0864
:10194000DB00ADEB030D6B460033BB61BB7B591C69
:101950004B1E7B610B461A464FF000034FEAC3094A
:1019600049EA52794FEAC2080B461A464FF0000383
:10197000DD0045EA5275D4000B460733DB08DB0077
:10198000ADEB030D6B4600333B61FB7B63F07F03E4
:10199000FB73BB7B012B03D9FB7B43F04003FB7341
:1019A000BB69FA7B1A70B9693A69BB7B0133DBB258
:1019B000062001F0A3F93B695A1CBB7BB8681146AD
:1019C0001A4601F097FDB5462437BD46BDE8F08FB5
:1019D00080B400AF044B1B680133034A1360BD465B
:1019E0005DF8047B704700BFC000002080B485B064
:1019F00000AF7860074B1B68FB6000BF054B1A689F
:101A0000FB68D21A7B689A42F8D31437BD465DF85A
:101A1000047B7047C000002090B585B000AF04463D
:101A2000084611461A462346FB710346BB710B4616
:101A30007B7113463B710023BB7300F0E1F84FF458
:101A40007A70FFF7D3FF5E4AFB79D3705C4ABB79AB
:101A500013715B4A7B795371594A3B799371584AA8
:101A600097F82030D371564A97F8243013723B7997
:101A7000184600F0F1F8022000F0FCF897F8243046
:101A8000184600F005F94E4A97F8283053724C4A30
:101A900097F82C30937297F82830184600F006F922
:101AA00097F82C30184600F00FF907F10E031120BB
:101AB0001946012200F016F9424800F0A9F8404BFF
:101AC000DB7AFA2B05D10023FB733D4B01221A7000
:101AD00004E0FF23FB733A4B00221A703A4800F0EF
:101AE000A3F8374B1B7B0F2B05D10023FB73344B23
:101AF00001225A7004E0FF23FB73314B00225A701D
:101B0000324800F09DF82E4B5B7B322B05D1002331
:101B1000FB732B4B01229A7004E0FF23FB73284BCD
:101B200000229A70264BDB782948194601F0F6FC12
:101B3000234B9B792748194601F0F0FC204B1B787A
:101B40002548194601F0EAFC1D4BDB7A234819466B
:101B500001F0E4FC1A4B1B792148194601F0DEFC28
:101B6000174BDB791F48194601F0D8FC144B5B7802
:101B70001D48194601F0D2FC114B1B7B1B4819462E
:101B800001F0CCFC0E4B5B791948194601F0C6FCFC
:101B90000B4B1B7A1748194601F0C0FC084B9B7889
:101BA0001548194601F0BAFC054B5B7B13481946F2
:101BB00001F0B4FCFB7B5BB218461437BD4690BD08
:101BC0000C00002017000020180000201900002041
:101BD000284500005045000078450000A045000061
:101BE000C8450000F4450000204600004C460000B7
:101BF000744600009C460000C4460000EC4600000D
:101C000080B500AF1420B621012200F0BBF980BDE1
:101C100080B582B000AF786000207968012200F0C2
:101C2000B1F90837BD4680BD80B582B000AF78609D
:101C300000207968012200F015FA0837BD4680BD02
:101C400080B582B000AF786040207968012200F052
:101C500079FA0837BD4680BD80B582B000AF034633
:101C6000FB71FB1D10201946012200F03BF80837DC
:101C7000BD4680BD80B582B000AF0346FB71FB1D41
:101C800010201946012200F00DF90837BD4680BD2D
:101C900080B582B000AF0346FB71FB1D4C20194696
:101CA000012200F0FFF80837BD4680BD80B582B044
:101CB00000AF0346FB71FB1D0F201946012200F007
:101CC00011F80837BD4680BD80B582B000AF03462D
:101CD000FB71FB1D0F201946012200F073F8083735
:101CE000BD4680BD2DE9F04F89B000AF0346B96015
:101CF000FB731346BB736B461E46BB7B591C4B1EC6
:101D0000FB610B461A464FF00003D80078607868F4
:101D100040EA52707860D3003B600B461A464FF0A1
:101D200000034FEAC30B4BEA527B4FEAC20A0B4651
:101D30000733DB08DB00ADEB030D6B460033BB6103
:101D4000BB7B591C4B1E7B610B461A464FF00003B0
:101D50004FEAC30949EA52794FEAC2080B461A46CC
:101D60004FF00003DD0045EA5275D4000B460733FF
:101D7000DB08DB00ADEB030D6B4600333B61FB7B07
:101D800003F07F03FB73BB7B012B03D9FB7B43F089
:101D90004003FB73BB69FA7B1A70BB695A1CBB7B9F
:101DA0001046B9681A4601F0A5FBB9693A69BB7BD0
:101DB0000133DBB2032000F0A1FFB5462437BD4656
:101DC000BDE8F08F2DE9F04F89B000AF0346B96050
:101DD000FB731346BB736B461E46BB7B591C4B1EE5
:101DE000FB610B461A464FF00003D8007860786814
:101DF00040EA52707860D3003B600B461A464FF0C1
:101E000000034FEAC30B4BEA527B4FEAC20A0B4670
:101E10000733DB08DB00ADEB030D6B460033BB6122
:101E2000BB7B591C4B1E7B610B461A464FF00003CF
:101E30004FEAC30949EA52794FEAC2080B461A46EB
:101E40004FF00003DD0045EA5275D4000B4607331E
:101E5000DB08DB00ADEB030D6B4600333B61FB7B26
:101E600003F07F03FB73BB7B012B03D9FB7B43F0A8
:101E70004003FB73BB69FA7B1A70BB695A1CBB7BBE
:101E80001046B9681A4601F035FBB9693A69BB7B5F
:101E90000133DBB2042000F031FFB5462437BD46E4
:101EA000BDE8F08F2DE9F04F89B000AF0346B9606F
:101EB000FB731346BB736B461E46BB7B591C4B1E04
:101EC000FB610B461A464FF00003D8007860786833
:101ED00040EA52707860D3003B600B461A464FF0E0
:101EE00000034FEAC30B4BEA527B4FEAC20A0B4690
:101EF0000733DB08DB00ADEB030D6B460033BB6142
:101F0000BB7B591C4B1E7B610B461A464FF00003EE
:101F10004FEAC30949EA52794FEAC2080B461A460A
:101F20004FF00003DD0045EA5275D4000B4607333D
:101F3000DB08DB00ADEB030D6B4600333B61FB7B45
:101F400003F07F03FB73BB7B012B03D9FB7B43F0C7
:101F50004003FB73BB69FA7B1A70BB695A1CBB7BDD
:101F60001046B9681A4601F0C5FAB9693A69BB7BEF
:101F70000133DBB2052000F0C1FEB5462437BD4673
:101F8000BDE8F08F2DE9F04F89B000AF0346B9608E
:101F9000FB731346BB736B461E46BB7B591C4B1E23
:101FA000FB610B461A464FF00003D8007860786852
:101FB00040EA52707860D3003B600B461A464FF0FF
:101FC00000034FEAC30B4BEA527B4FEAC20A0B46AF
:101FD0000733DB08DB00ADEB030D6B460033BB6161
:101FE000BB7B591C4B1E7B610B461A464FF000030E
:101FF0004FEAC30949EA52794FEAC2080B461A462A
:102000004FF00003DD0045EA5275D4000B4607335C
:10201000DB08DB00ADEB030D6B4600333B61FB7B64
:1020200063F07F03FB73BB7B012B03D9FB7B43F086
:102030004003FB73BB69FA7B1A70B9693A69BB7BD1
:102040000133DBB2032000F059FE3B695A1CBB7B15
:10205000B86811461A4601F04DFAB5462437BD4618
:10206000BDE8F08F2DE9F04F89B000AF0346B960AD
:10207000FB731346BB736B461E46BB7B591C4B1E42
:10208000FB610B461A464FF00003D8007860786871
:1020900040EA52707860D3003B600B461A464FF01E
:1020A00000034FEAC30B4BEA527B4FEAC20A0B46CE
:1020B0000733DB08DB00ADEB030D6B460033BB6180
:1020C000BB7B591C4B1E7B610B461A464FF000032D
:1020D0004FEAC30949EA52794FEAC2080B461A4649
:1020E0004FF00003DD0045EA5275D4000B4607337C
:1020F000DB08DB00ADEB030D6B4600333B61FB7B84
:1021000063F07F03FB73BB7B012B03D9FB7B43F0A5
:102110004003FB73BB69FA7B1A70B9693A69BB7BF0
:102120000133DBB2042000F0E9FD3B695A1CBB7BA4
:10213000B86811461A4601F0DDF9B5462437BD46A8
:10214000BDE8F08F2DE9F04F89B000AF0346B960CC
:10215000FB731346BB736B461E46BB7B591C4B1E61
:10216000FB610B461A464FF00003D8007860786890
:1021700040EA52707860D3003B600B461A464FF03D
:1021800000034FEAC30B4BEA527B4FEAC20A0B46ED
:102190000733DB08DB00ADEB030D6B460033BB619F
:1021A000BB7B591C4B1E7B610B461A464FF000034C
:1021B0004FEAC30949EA52794FEAC2080B461A4668
:1021C0004FF00003DD0045EA5275D4000B4607339B
:1021D000DB08DB00ADEB030D6B4600333B61FB7BA3
:1021E00063F07F03FB73BB7B012B03D9FB7B43F0C5
:1021F0004003FB73BB69FA7B1A70B9693A69BB7B10
:102200000133DBB2052000F079FD3B695A1CBB7B32
:10221000B86811461A4601F06DF9B5462437BD4637
:10222000BDE8F08F80B588B000AF7860774BDB7881
:10223000072B00F2A98001A252F823F05D220000D2
:102240007B2200009D220000BF220000DD22000052
:102250000F230000312300008923000007F10C0345
:10226000022019460222FFF78DFE07F10C03786861
:102270001946022201F03EF987E007F10C03042021
:1022800019460222FFF77EFE7B689A1C07F10C03B9
:1022900010461946022201F02DF976E007F10C03F1
:1022A000062019460222FFF76DFE7B681A1D07F112
:1022B0000C0310461946022201F01CF965E007F1F3
:1022C0000C03022019460422FFF75CFE07F10C0301
:1022D00078681946042201F00DF956E007F10C0365
:1022E000022019460622FFF74DFE07F10C0378681D
:1022F0001946022201F0FEF87B681A1D07F10C0353
:10230000043310461946062201F0F4F83DE007F1C7
:102310000C03042019460422FFF734FE7B689A1C44
:1023200007F10C0310461946042201F0E3F82CE0F3
:10233000022079680122FFF725FE7B680133032024
:1023400019460122FFF71EFE7B680233042019465E
:102350000122FFF717FE7B6803330520194601228F
:10236000FFF710FE7B680433062019460122FFF7B1
:1023700009FE7B680533072019460122FFF702FE9C
:10238000234801F0CBF800E000BF7B6801331B78E5
:102390001B029AB27B681B789BB213439BB29BB221
:1023A000184600F095FDF8617B6803331B781B022B
:1023B0009AB27B6802331B789BB213439BB29BB2E9
:1023C000184600F085FDB8617B6805331B781B0259
:1023D0009AB27B6804331B789BB213439BB29BB2C7
:1023E000184600F075FD78610A48F96901F096F821
:1023F0000948B96901F092F80848796901F08EF846
:1024000000235BB218462037BD4680BD0C0000207B
:10241000144700002C4700004C4700006C470000A8
:1024200080B584B000AF7860584B1B79072B00F261
:10243000A68001A252F823F059240000772400005E
:1024400099240000BB240000D92400000B250000C3
:102450002D2500007F25000007F108030220194602
:102460000222FFF7FFFD07F10803786819460222F0
:1024700001F040F884E007F1080304201946022225
:10248000FFF7F0FD7B689A1C07F108031046194618
:10249000022201F02FF873E007F108030620194625
:1024A0000222FFF7DFFD7B681A1D07F108031046C3
:1024B0001946022201F01EF862E007F1080302202B
:1024C00019460422FFF7CEFD07F108037868194684
:1024D000042201F00FF853E007F108030220194627
:1024E0000622FFF7BFFD07F10803786819460222AC
:1024F00001F000F87B681A1D07F108030433104649
:102500001946062200F0F6FF3AE007F1080304201E
:1025100019460422FFF7A6FD7B689A1C07F1080301
:1025200010461946042200F0E5FF29E002207968F0
:102530000122FFF797FD7B68013303201946012232
:10254000FFF790FD7B680233042019460122FFF754
:1025500089FD7B680333052019460122FFF782FDC0
:102560007B680433062019460122FFF77BFD7B6858
:102570000533072019460122FFF774FD00E000BF74
:1025800000235BB218461037BD4680BD0C0000200A
:1025900080B483B000AF0346FB71094997F9073057
:1025A0005B09FA7902F01F02012000FA02F260339F
:1025B00041F823200C37BD465DF8047B704700BF0F
:1025C00000E100E080B483B000AF03463960FB71E6
:1025D000FB79002B0DD0FB79012B0AD0FB79022B64
:1025E00007D0FB79032B04D0FB79042B01D0FB79B6
:1025F000052B0949FA793B68012000FA03F31846D4
:102600001346DB0013449B000B44103358600C3717
:10261000BD465DF8047B70470060004080B483B025
:1026200000AF03463960FB71FB79002B0DD0FB79BD
:10263000012B0AD0FB79022B07D0FB79032B04D0A6
:10264000FB79042B01D0FB79052B0949FA793B680A
:10265000012000FA03F318461346DB0013449B00E5
:102660000B44103318600C37BD465DF8047B70478F
:102670000060004080B500AF0348FEF765FD0346EB
:102680001A46024B1A7080BD00A40040CC00002006
:10269000B0B5AAB000AF03460A46FB711346BB7142
:1026A000FB79072B00F2D48201A252F823F000BF7D
:1026B000D126000073270000512C000039280000AB
:1026C000FF280000C5290000C52A00008B2B000050
:1026D000BB7983F00103DBB2002B0AD0C248FEF7BE
:1026E00015FDC2480021FEF76FF9C14B00221A7098
:1026F0003EE0BF4B1B7883F00103DBB2002B37D0E9
:10270000B948FEF703FDBB480121FEF75DF9B74864
:102710000121FEF759F9B8480121FEF755F90120CA
:102720000C2108220123FEF787FB01200B21082240
:102730000123FEF781FBB14B07F198040FCB84E82E
:102740000F0007F19803A8481946FEF7A3FCA84B11
:1027500001221A70A44B40F203129A63A24800218E
:10276000A74A0123FEF718FC0A20FFF711FF70E2C9
:102770006FE2BB7983F00103DBB2002B0AD0A148E2
:10278000FDF726FFA0480021FEF71EF9984B002216
:102790005A7050E0964B5B7883F00103DBB2002B5C
:1027A00049D09848FDF714FF92480121FEF70CF933
:1027B00095480121FEF708F98F480121FEF704F939
:1027C00004200D2104220023FEF736FB04200C21F7
:1027D00001220023FEF730FB02200F2104220023F8
:1027E000FEF72AFB02200C2104220023FEF724FB23
:1027F000864B07F180041D460FCD0FC495E80300FA
:1028000084E8030007F180037E481946FDF77AFE4D
:10281000774B01225A707B4B40F20B325A65794854
:1028200000217B4AFDF734FE0420FFF7B1FE0320B0
:10283000FFF7AEFE0DE20CE2BB7983F00103DBB2E1
:10284000002B0AD07348FDF7C3FE73480021FEF742
:10285000BBF8674B0022DA7050E0654BDB7883F001
:102860000103DBB2002B49D06A48FDF7B1FE614895
:102870000121FEF7A9F868480121FEF7A5F85E4896
:102880000121FEF7A1F80120032104220023FEF715
:10289000D3FA0120042101220023FEF7CDFA012002
:1028A000052104220123FEF7C7FA00200421042297
:1028B0000123FEF7C1FA594B07F168041D460FCDFD
:1028C0000FC495E8030084E8030007F1680351484A
:1028D0001946FDF717FE464B0122DA704D4B40F2C8
:1028E0000B125A654B480021494AFDF7D1FD1320D0
:1028F000FFF74EFE1220FFF74BFEAAE1A9E1BB79DC
:1029000083F00103DBB2002B0AD04248FDF760FEE2
:1029100041480021FEF758F8354B00221A7150E06B
:10292000334B1B7983F00103DBB2002B49D03948CC
:10293000FDF74EFE2F480121FEF746F836480121EB
:10294000FEF742F82C480121FEF73EF80120032152
:1029500004220023FEF770FA012004210122002343
:10296000FEF76AFA0120052104220123FEF764FA2A
:102970000120062104220123FEF75EFA274B07F10E
:1029800050041D460FCD0FC495E8030084E80300F2
:1029900007F150031F481946FDF7B4FD144B0122FF
:1029A0001A711C4B40F20B125A651A480021184A42
:1029B000FDF76EFD1320FFF7EBFD1220FFF7E8FD9A
:1029C00047E146E1BB7983F00103DBB2002B27D05E
:1029D0001048FDF7FDFD10480021FDF7F5FF044B01
:1029E00000225A716DE000BF00A4004000C2040044
:1029F000C40000204081040000D20400D848000038
:102A0000DDFB050000C0004000020400E8480000B3
:102A100040420F0000C800400022040000490000AE
:102A2000A54B5B7983F00103DBB2002B49D0A348AF
:102A3000FDF7CEFDA2480121FDF7C6FFA148012107
:102A4000FDF7C2FFA0480121FDF7BEFF01200321D1
:102A500004220023FEF7F0F90120042101220023C3
:102A6000FEF7EAF90120052104220123FEF7E4F92B
:102A70000020012104220123FEF7DEF9934B07F128
:102A800038041D460FCD0FC495E8030084E8030009
:102A900007F1380389481946FDF734FD864B0122BA
:102AA0005A71864B40F20B125A6584480021884ABD
:102AB000FDF7EEFC1320FFF76BFD1220FFF768FD1A
:102AC000C7E0C6E0BB7983F00103DBB2002B0AD07C
:102AD0008048FDF77DFD80480021FDF775FF764BAE
:102AE00000229A7150E0744B9B7983F00103DBB2B2
:102AF000002B49D07748FDF76BFD71480121FDF7A8
:102B000063FF75480121FDF75FFF6F480121FDF765
:102B10005BFF0320002104220023FEF78DF9032030
:102B2000012101220023FEF787F90320022104225C
:102B30000123FEF781F90220042104220123FEF77C
:102B40007BF9624B07F120041D460FCD0FC495E8B9
:102B5000030084E8030007F120035E481946FDF7EF
:102B6000D1FC554B01229A715A4B40F20B125A6517
:102B700058480021564AFDF78BFC1020FFF708FD4E
:102B80000F20FFF705FD64E063E0BB7983F00103EC
:102B9000DBB2002B0AD04F48FDF71AFD4E4800214A
:102BA000FDF712FF444B0022DA7150E0424BDB7913
:102BB00083F00103DBB2002B49D04648FDF708FD46
:102BC0003F480121FDF700FF43480121FDF7FCFECE
:102BD0003D480121FDF7F8FE0320002104220023D7
:102BE000FEF72AF90320012101220023FEF724F930
:102BF0000320022104220123FEF71EF903200321F2
:102C000004220123FEF718F9304B07F108041D4692
:102C10000FCD0FC495E8030084E8030007F1080313
:102C20002C481946FDF76EFC234B0122DA71294B23
:102C300040F20B125A6527480021254AFDF728FC6F
:102C40001020FFF7A5FC0F20FFF7A2FC01E000E039
:102C500000BF194B1B782148194600F05FFC164B4A
:102C60005B781F48194600F059FC134B9B781D48B0
:102C7000194600F053FC104BDB781B48194600F056
:102C80004DFC0D4B1B791948194600F047FC0A4BC7
:102C90005B791748194600F041FC074B9B791548B2
:102CA000194600F03BFC044BDB791348194600F051
:102CB00035FCA837BD46B0BDC400002000C80040A8
:102CC000408104000022040000D2040000490000FA
:102CD00040420F0000C40040001204008C47000076
:102CE000B4470000DC470000044800003048000002
:102CF0005C48000088480000B048000090B587B0EC
:102D000000AFB9607A601A460346FB731346BB7383
:102D1000FB7B013B062B00F2D18001A252F823F08D
:102D20003D2D0000BD2E00007D2D0000BD2D0000BA
:102D3000FD2D00003D2E00007D2E000002200E2102
:102D4000FFF76CFC0023FB750FE0FB7D7A68D4185D
:102D5000FB7DBA6813441B785A481946FDF784FC7A
:102D600003462370FB7D0133FB75FA7DBB7B9A42E2
:102D7000EBD302200E21FFF725FCA0E00020042168
:102D8000FFF720FC0023FB750FE0FB7D7A68D41869
:102D9000FB7DBA6813441B784B481946FDF764FC69
:102DA00003462370FB7D0133FB75FA7DBB7B9A42A2
:102DB000EBD300200421FFF731FC80E00120062145
:102DC000FFF700FC0023FB750FE0FB7D7A68D41849
:102DD000FB7DBA6813441B783B481946FDF744FC59
:102DE00003462370FB7D0133FB75FA7DBB7B9A4262
:102DF000EBD301200621FFF711FC60E00020012148
:102E0000FFF7E0FB0023FB750FE0FB7D7A68D41829
:102E1000FB7DBA6813441B782B481946FDF724FC48
:102E200003462370FB7D0133FB75FA7DBB7B9A4221
:102E3000EBD300200121FFF7F1FB40E00220042149
:102E4000FFF7C0FB0023FB750FE0FB7D7A68D41809
:102E5000FB7DBA6813441B781C481946FDF704FC37
:102E600003462370FB7D0133FB75FA7DBB7B9A42E1
:102E7000EBD302200421FFF7D1FB20E00320032144
:102E8000FFF7A0FB0023FB750FE0FB7D7A68D418E9
:102E9000FB7DBA6813441B780C481946FDF7E4FB28
:102EA00003462370FB7D0133FB75FA7DBB7B9A42A1
:102EB000EBD303200321FFF7B1FB00E000BF1C3779
:102EC000BD4690BD00C0004000C8004000C40040A6
:102ED00080B483B000AF0346FB80FB88DB0B9BB262
:102EE000012B05D1FB885B42FB80FB885B4200E045
:102EF000FB8818460C37BD465DF8047B704700BF61
:102F000080B483B000AF786039607B68DB0FDAB2E1
:102F10003B68DB0FDBB25340DBB2002B0AD03B68CF
:102F2000DA0F13445B101A467B689A1A3B6892FBCF
:102F3000F3F309E03B68DA0F13445B101A467B6831
:102F40001A443B6892FBF3F318460C37BD465DF814
:102F5000047B704780B483B000AF78604FF060436B
:102F6000D3F8803E03F00103002B13D04FF06043F1
:102F7000D3F8003E03F00103002B0BD000E000BFAC
:102F80004FF060431B68002BF9D04FF060437A6824
:102F9000D2B21A707B6818460C37BD465DF8047BC8
:102FA000704700BF80B400AF334A334B5B6C43F4CF
:102FB00000535364314A314BD3F8203143F00403BA
:102FC000C2F820312D4A2D4BD3F8203123F4407321
:102FD000C2F82031294A294BD3F8B83023F4706362
:102FE000C2F8B830254A254BD3F8B83043F4806393
:102FF000C2F8B830204B10221A6200BF1E4BDB6AA9
:1030000003F02003002BF9D01D4A1D4BDB6843F071
:103010008073D3604FF060431A4AC3F8B02F4FF06B
:1030200060430022C3F8002E4FF060430022C3F833
:10303000802E154B0222C3F8F020134B0F221A6189
:103040004FF060430022C3F8402E104B104A1A6024
:103050004FF060430F4AC3F8802E0B4B4FF4807241
:10306000C3F804234FF060430122C3F8002EBD468D
:103070005DF8047B704700BF00800C40006000409A
:10308000F0ED00E055CEACC5000004E0001000E01B
:10309000FE0300400D00010080B586B000AFF8606F
:1030A000B9607A6000237B6109E0BB685A1CBA6092
:1030B0001B781846FFF74EFF7B6901337B617A6905
:1030C0007B689A42F1DB7B6818461837BD4680BDA5
:1030D00080B483B000AF03463960FB7197F90730C5
:1030E000002B0BDA0D49FB7903F00F03043B3A6820
:1030F000D2B25201D2B20B441A7609E0084997F9CC
:1031000007303A68D2B25201D2B20B4483F800239E
:103110000C37BD465DF8047B704700BF00ED00E052
:1031200000E100E080B582B000AF78607B68013BD1
:10313000B3F1807F01D301230FE00A4A7B68013B92
:1031400053604FF0FF300721FFF7C2FF054B00220D
:103150009A60044B07221A60002318460837BD46C0
:1031600080BD00BF10E000E080B485B000AF7860A3
:1031700039607B6803F10473DA003B6813449B00F9
:10318000FB60FB681B6818461437BD465DF8047B7E
:10319000704700BF80B582B000AF03463960FB7155
:1031A000FB79002B0DD0FB79012B0AD0FB79022B88
:1031B00007D0FB79032B04D0FB79042B01D0FB79DA
:1031C000052BFA791346DB0013449B001C3303F1F3
:1031D000804303F5C04318463968FFF7C5FF03462F
:1031E00018460837BD4680BD80B400AFBD465DF8C7
:1031F000047B704780B592B004AF954A07F128036D
:1032000010685168926807C3002387F83730FFF7CA
:10321000EBFFFFF7C7FE8F48FDF740FC02468E4BE1
:10322000A3FB02239B091846FFF77CFF0346002BF4
:1032300000D0FEE789480121FDF7C6FB884801213F
:10324000FDF7C2FB02200D2105220023FDF7F4FD4E
:1032500000200E2101220023FDF7EEFD814B4FF4EB
:103260000052DA6507200121FFF712FA062001213A
:10327000FFF70EFA03200121FFF70AFA04200121CB
:10328000FFF706FA05200121FFF702FA06200821C0
:10329000FEF780F902230093382301930C23029355
:1032A000012303930620062106220C23FEF7B4FB1C
:1032B00000200E21FFF76EFF0346002B00F0B780C1
:1032C000684B4FF400529A6597F837305A1C87F8CC
:1032D000372087F8283007F114031846FEF7A2FFBD
:1032E0007B7D1B029AB23B7D9BB213439BB29BB288
:1032F0001846FFF7EDFD03465B48194600F00EF94E
:10330000FB7D1B029AB2BB7D9BB213439BB29BB267
:103310001846FFF7DDFD03465448194600F0FEF855
:103320007B7E1B029AB23B7E9BB213439BB29BB245
:103330001846FFF7CDFD03464D48194600F0EEF85C
:10334000002387F8363012E097F8363097F83620A9
:1033500007F138010A4412F8242C07F138010B4414
:1033600003F8102C97F83630013387F8363097F889
:103370003630052BE8D907F10C031846FFF750F853
:103380007B7B1B029AB23B7B9BB213439BB29BB2EB
:103390001846FFF79DFD03463648194600F0BEF873
:1033A000FB7B1B029AB2BB7B9BB213439BB29BB2CB
:1033B0001846FFF78DFD03462F48194600F0AEF87A
:1033C0007B7C1B029AB23B7C9BB213439BB29BB2A9
:1033D0001846FFF77DFD03462848194600F09EF881
:1033E000002387F8353013E097F83530063397F827
:1033F000352007F138010A4412F82C2C07F1380166
:103400000B4403F8102C97F83530013387F835302A
:1034100097F83530052BE7D907F1280207F11C038F
:10342000072011461A460C23FFF768FC03E00D4BFA
:103430004FF40052DA6500233B6002E03B68013341
:103440003B603B6842F20F729342F7D930E700BF0E
:103450005849000050000200D34D62104081040022
:1034600000D204000060004018490000204900001C
:103470002C49000038490000404900004C49000038
:1034800008B5074B044613B10021AFF30080054B8C
:103490001868836A03B19847204600F03DFF00BFDB
:1034A000000000006849000070B50E4B0E4CE41A95
:1034B000A41000251E46A54204D056F82530984792
:1034C0000135F8E700F02AFF084C094BE41AA41074
:1034D00000251E46A54204D056F8253098470135F0
:1034E000F8E770BD800000208000002084000020EC
:1034F0008000002010B5431E0A44914204D011F808
:10350000014B03F8014FF8E710BD02440346934214
:1035100002D003F8011BFAE7704700000FB40A4B12
:1035200013B51C6824B1A36913B9204600F04EF806
:1035300005AB2046A168049A019300F04DF902B052
:10354000BDE8104004B070477C000020014900F045
:10355000A7B800BF89400000002310B504460360EF
:103560004360836081814366C281036143618361FB
:1035700019465C300822FFF7C8FF054B6362054B14
:10358000A362054BE362054B2462236310BD00BFB9
:10359000353D0000573D00008F3D0000B33D000069
:1035A00070B568234D1E5D430E4605F1740100F0B1
:1035B00095F8044640B1002180E842000C30A0603C
:1035C00005F16802FFF7A1FF204670BD836910B5C1
:1035D000044633BB8364C3640365124B124A1B6801
:1035E0008262984204BF0123836100F01FF860608B
:1035F000204600F01BF8A060204600F017F80421D8
:10360000E06000226068FFF7A7FFA068092101229F
:10361000FFF7A2FFE06812210222FFF79DFF0123BE
:10362000A36110BD684900004D350000F8B51B4B83
:103630001E68B369074613B93046FFF7C7FF48361F
:10364000B4687368013B04D4B4F90C5075B16834A4
:10365000F8E733682BB938460421FFF7A1FF306043
:1036600008B13668ECE70C233B60F8BD4FF6FF73FA
:10367000E3810123A38165662560A56065602561FE
:103680006561A56104F15C0029460822FFF73DFF52
:103690006563A563A564E5642046F8BD684900003C
:1036A0002DE9F8438046894600F14804002694B18C
:1036B000A5686768013F0CD4AB89012B07D9B5F920
:1036C0000E30013303D040462946C84706436835CB
:1036D000F0E72468EBE73046BDE8F88370B5CC1C12
:1036E00024F0030408340C2C38BF0C24002C0646AC
:1036F00003DA0C233360002070BD8C42F9D3204ADA
:10370000136810461946A1B10A68121B0ED40B2A81
:1037100003D90A608B188C501FE08B420DBF5A688A
:103720004A685A60026018BF0B4616E00B464968AB
:10373000E9E7144D2B681BB9304600F0EBFA28601E
:103740003046214600F0E6FA421C0346D1D0C51CA3
:1037500025F0030585420AD11C6003F10B001A1DF8
:1037600020F00700821A0AD05142995070BD3046AD
:10377000E91A00F0CFFA0130BBD02B46ECE770BD60
:10378000D4000020D00000209368013B002B10B52E
:10379000936009DA9469A34202DBCBB20A2B03D10E
:1037A000BDE8104000F00ABB1368581C1060197087
:1037B000C8B210BDF8B506460F461446D518AC423F
:1037C00008D0304614F8011B3A46FFF7DDFF431CD2
:1037D000F5D100E00020F8BD2DE9F0439DB00D4685
:1037E00090460393064618B183690BB9FFF7EEFEC6
:1037F000754B9D4201D1756808E0744B9D4201D123
:10380000B56803E0724B9D4208BFF568AB891C07A1
:103810000AD52B6943B10023099320238DF8293061
:1038200030238DF82A3041E03046294600F02CFB49
:103830000028F0D04FF0FF30C2E0039A111D12684B
:103840000391002ABBBF524243F002030792079242
:10385000B8BF0493013423782E2B7BD0DFF880810E
:1038600021784046032200F099FC38B1049AC8EB55
:1038700000004023834013430493013421785548CA
:103880008DF82810062204F1010800F087FC0028BA
:1038900000F08580504B002B78D1039B073323F039
:1038A000070308330393099B3B44099343461C4693
:1038B00013F8012B1AB9B4EB08090ED002E0252A3F
:1038C000F5D1F8E73046294642464B46FFF772FFEE
:1038D000013070D0099B4B4409932378002B6AD0A8
:1038E00000234FF0FF3204930793059206938DF85F
:1038F00053301A9304F101084446DFF8E890217828
:103900004846052200F04AFC08F10108049B30B14A
:10391000C9EB00000122824013430493ECE7D80670
:1039200044BF20228DF85320190744BF2B228DF865
:10393000532022782A2A80D0079923461C46013337
:103940002278303A092A03D80A2000FB0121F5E742
:10395000079180E763782A2B0AD1039B1A1D1B6805
:103960000392002BB8BF4FF0FF330234059375E785
:10397000611C00220C4601312378303B092B03D80F
:103980000A2000FB0232F5E7059267E703AB0093DC
:10399000304604A92A46114BAFF3008007E003AB81
:1039A0000093304604A92A460C4B00F093F8421CC1
:1039B00007467FF478AFAB895B063FF53BAF0998CC
:1039C0001DB0BDE8F08300BF6C4900008C490000C9
:1039D000AC490000D649000000000000B5370000E7
:1039E000D2490000CC4900002DE9F84391461F461A
:1039F0008A680B69DDF820809342B8BF1346C9F886
:103A0000003091F8432006460C4612B10133C9F844
:103A100000302368990642BFD9F800300233C9F854
:103A20000030256815F006051CD094F84330226854
:103A3000003318BF012392061FD5E1185A1C30200D
:103A400081F84300224494F8451082F84310023371
:103A500013E03046394604F119020123C047013012
:103A600007D00135E368D9F800209B1A9D42F0DBAE
:103A7000DBE74FF0FF30BDE8F8833046394604F10C
:103A80004302C0470130F4D02268D9F80050E368FF
:103A900002F00602042A08BF5D1B2269A3680CBF5E
:103AA00025EAE57500259342C4BF9B1AED184FF037
:103AB0000009A9450ADA3046394604F11A02012301
:103AC000C0470130D5D009F10109F2E70020BDE877
:103AD000F88300002DE9FF410C461746227E6E2A2E
:103AE000984606460A9B01F1430100F0AF8012D8C8
:103AF000632A23D00AD8002A00F0BC80582A40F05C
:103B0000CB8084F84520DFF804E257E0642A1ED019
:103B1000692A1CD0C0E0732A00F0B08009D86F2A4F
:103B20002ED0702A40F0B880226842F02002226035
:103B30003FE0752A24D0782A3BD0ADE01A68111DE9
:103B40001960136884F8423004F14205A8E0206847
:103B50001A6810F0800F02D0101D186008E010F0F5
:103B6000400F02F10400186002D0B2F9003000E00A
:103B70001368002B3EDA2D225B4284F8432039E0A3
:103B800020681A6810F0800F02D0101D186007E03E
:103B900010F0400F02F10400186001D0138800E01B
:103BA0001368227EDFF864E16F2A0CBF08220A2224
:103BB0001CE07822DFF858E184F845202268186874
:103BC00012F0800F00F104051D6003D1550601D5E8
:103BD000038800E00368D00744BF42F0200222605F
:103BE0001BB9226822F0200222601022002084F8F3
:103BF000430002E0DFF814E10A226568A560002DA9
:103C0000A2BF206820F00400206003B965B10D4612
:103C1000B3FBF2F002FB10331EF8033005F8013D50
:103C200003460028F4D100E00D46082A0BD1236892
:103C3000DA0708D5236962689A42DEBF302305F8A7
:103C4000013C05F1FF35491B21612EE025681A680A
:103C5000606915F0800F03D0151D1D60136808E022
:103C600015F0400F02F104051D60136801D01880A3
:103C700000E01860002323610D4616E01A68111D4C
:103C80001960156862682846002100F087FA08B1BB
:103C9000401B6060636804E004F1420584F8422040
:103CA00001232361002384F84330CDF8008030469F
:103CB000214603AA3B46FFF797FE013002D14FF0A1
:103CC000FF301FE0304639462A462369C04701309D
:103CD000F5D023689B0705D4E068039B9842B8BFE2
:103CE00018460FE00025E368039A9B1A9D42F3DA19
:103CF0003046394604F119020123C0470130DED0B5
:103D00000135F0E704B0BDE8F08100BFDD490000F7
:103D1000EE49000038B5064C0023054608462360EE
:103D200000F0ECFA431C02D1236803B12B6038BDCC
:103D3000E000002010B50C46B1F90E1000F082FA38
:103D40000028ABBF636DA3891B1823F48053ACBF5D
:103D50006365A38110BD2DE9F0411D468B89DB050C
:103D600007460C46164605D5B1F90E10002202236F
:103D700000F0B4F9A389B4F90E1023F48053A381A1
:103D8000384632462B46BDE8F04100F06BB810B51E
:103D90000C46B1F90E1000F0A1F9431CA38915BF20
:103DA000606523F4805343F48053A38118BFA3813B
:103DB00010BDB1F90E1000F0D3B8000070B50D467B
:103DC0001446064618B183690BB9FFF7FFFB224B77
:103DD0009C4201D1746808E0204B9C4201D1B46838
:103DE00003E01F4B9C4208BFF468A369A360A3894A
:103DF0001A0709D523693BB123682069181A63693A
:103E00009842EDB20FDB08E03046214600F03CF866
:103E10000028F1D04FF0FF3070BD3046214600F051
:103E200033F90028F6D1A368013BA36023685A1C2C
:103E300022601D7063690130984204D0A389DB07BA
:103E400007D50A2D05D13046214600F01DF900287E
:103E5000E0D1284670BD00BF6C4900008C490000CD
:103E6000AC49000038B5074C0546002020600846E4
:103E700011461A46FFF710F9431C02D1236803B11B
:103E80002B6038BDE0000020314B70B51D68064640
:103E90000C4625B1AB6913B92846FFF797FB2D4BAC
:103EA0009C4201D16C6808E02B4B9C4201D1AC686C
:103EB00003E02A4B9C4208BFEC68A3899AB2110721
:103EC0001DD4D50602D40922326038E0500712D53D
:103ED000616B41B104F14403994202D0304600F0D5
:103EE0006DF900236363A38923F02403A3810023D6
:103EF000636023692360A38943F00803A3812369D6
:103F00004BB9A38903F42073B3F5007F03D0304687
:103F1000214600F0F5F8A38913F0010205D0002234
:103F2000A26062695242A26103E0990758BF6269C8
:103F3000A26022694AB903F0800080B230B143F038
:103F40004003A3814FF0FF3070BD002070BD00BF63
:103F50007C0000206C4900008C490000AC49000046
:103F600038B5064C002305460846236000F09EF94C
:103F7000431C02D1236803B12B6038BDE000002050
:103F80008A892DE9F041054610070C4657D44B6845
:103F9000002B02DC0B6C002B18DDE66AB6B102F4D4
:103FA0008052002392B22F682B600AB1626D10E03C
:103FB000216A28460123B047411C024609D12B68DB
:103FC0003BB11D2B01D0162B47D12F600020BDE83F
:103FD000F081A3895B0705D56368D21A636B0BB1C7
:103FE000236CD21AE66A216A00232846B047461C91
:103FF000A38905D12A681AB11D2A01D0162A19D120
:1040000000226260D9042269226004D5421C01D1D9
:104010002B6803B96065616B2F600029D6D004F16D
:104020004403994202D0284600F0C8F8002060639B
:10403000BDE8F08143F04003A381BDE8F0810F6942
:10404000002FC3D093070E6808BF4B690F6018BFDD
:104050000023C7EB06088B6012E0A38943F04003FE
:10406000A3814FF0FF30BDE8F0812846216AA66A9F
:104070003A464346B0470028EFDD0744C0EB080846
:10408000B8F1000FF1DCA1E738B50B6905460C4625
:10409000DBB118B183690BB9FFF798FA0C4B9C425E
:1040A00001D16C6808E00B4B9C4201D1AC6803E085
:1040B000094B9C4208BFEC68B4F90C302BB1284680
:1040C0002146BDE83840FFF75BBF002038BD00BF88
:1040D0006C4900008C490000AC49000038B5074C21
:1040E000054600202060084611461A4600F0F6F802
:1040F000431C02D1236803B12B6038BDE0000020CF
:10410000F0B58B899D0791B006460C4626D4B1F9CF
:104110000E10002909DAA38913F0800F4FF0000573
:1041200014BF40274FF480670DE001AA00F09CF80F
:104130000028F0DB029D05F47045A5F500514D42C5
:104140004D414FF4806730463946FFF7C7FA60B9F2
:10415000A3899A051DD443F00203A38104F1470308
:10416000236023610123636113E00B4BB362A389D6
:10417000206043F08003A381206167614DB1304628
:10418000B4F90E1000F082F818B1A38943F00103CE
:10419000A38111B0F0BD00BF4D35000010B5C9B20C
:1041A00002449042034606D01C788C4200F1010084
:1041B000F7D1184610BD002010BD000030B5002911
:1041C0003DD051F8042C0B1F1D49002AB8BF9B1885
:1041D0000A680C4612B95A600B6030BD93420DD28A
:1041E00019685818904201BF5A5852181A6042680C
:1041F0005A60236030BD994203D80A4651680029AD
:10420000F9D1146815199D420AD11B682344D018AE
:104210008842136013D10868034413604B680DE0B3
:1042200002D90C23036030BD1C681819884204BFF2
:1042300008684968596004BF00191860536030BDB0
:10424000D400002038B5074C054600202060084601
:1042500011461A4600F04AF8431C02D1236803B104
:104260002B6038BDE000002038B5074C0023054620
:1042700008461146236000F021F8431C02D1236850
:1042800003B12B6038BD00BFE000002038B5064CFC
:10429000002305460846236000F018F8431C02D1AD
:1042A000236803B12B6038BDE0000020024B582288
:1042B0001A604FF0FF307047E0000020024B582298
:1042C0001A604FF0FF307047E0000020024B582288
:1042D0001A600020704700BFE0000020024B582207
:1042E0001A604FF0FF307047E0000020024B582268
:1042F0001A604FF0FF307047E0000020044A054983
:104300001368002B08BF0B4618441060184670470E
:10431000D8000020E8000020FEE700BFF8B500BF8D
:10432000F8BC08BC9E467047F8B500BFF8BC08BC96
:104330009E467047080911084144584C3337355F91
:10434000496E697428293A20706172616D732E7309
:10435000656E736F7273203D2025690A00000000AE
:104360004144584C3337355F496E697428293A20E7
:10437000706172616D732E66726571202020203D20
:104380002025690A000000004144584C3337355F4E
:10439000496E697428293A20706172616D732E69C3
:1043A0006E6974202020203D2025690A000000004D
:1043B0004144584C3337355F496E697428293A2097
:1043C000706172616D732E69642020202020203D71
:1043D0002025690A000000004144584C3337355FFE
:1043E0004765744461746128293A2078203D20256E
:1043F000690A00004144584C3337355F47657444BF
:1044000061746128293A2079203D2025690A00003D
:104410004144584C3337355F4765744461746128B3
:10442000293A207A203D2025690A00004144584C51
:104430003337355F53657443616C696272617469C7
:104440006F6E4F66667365747328293A20784F66DD
:1044500066203D2025690A004144584C3337355FBA
:1044600053657443616C6962726174696F6E4F6603
:10447000667365747328293A20794F6666203D205B
:1044800025690A004144584C3337355F53657443FE
:10449000616C6962726174696F6E4F666673657490
:1044A0007328293A207A4F6666203D2025690A0044
:1044B0004144584C3337355F4175746F43616C69C3
:1044C000627261746528293A20784D65616E203DDD
:1044D0002025690A000000004144584C3337355FFD
:1044E0004175746F43616C69627261746528293A21
:1044F00020794D65616E203D2025690A000000008D
:104500004144584C3337355F4175746F43616C6972
:10451000627261746528293A207A4D65616E203D8A
:104520002025690A00000000424D583035355F49AA
:104530006E697428293A20706172616D732E41632F
:104540006353656E736F727320093D2025690A00FD
:10455000424D583035355F496E697428293A2070CC
:104560006172616D732E41636366726571202020F4
:1045700020093D2025690A00424D583035355F49F4
:104580006E697428293A20706172616D732E696EAC
:10459000697441636320202020093D2025690A00B9
:1045A000424D583035355F496E697428293A20707C
:1045B0006172616D732E4163634944202020202085
:1045C000093D2025690A0000424D583035355F49C4
:1045D0006E697428293A20706172616D732E477973
:1045E000726F53656E736F727320093D2025690ADF
:1045F00000000000424D583035355F496E6974281F
:10460000293A20706172616D732E4779726F6672FC
:10461000657120202020093D2025690A0000000046
:10462000424D583035355F496E697428293A2070FB
:104630006172616D732E696E69744779726F2020A3
:104640002020093D2025690A00000000424D583015
:1046500035355F496E697428293A20706172616D41
:10466000732E4779726F49442020202020093D2075
:1046700025690A00424D583035355F496E69742806
:10468000293A20706172616D732E4D616773656E9A
:10469000736F727320093D2025690A00424D58301E
:1046A00035355F496E697428293A20706172616DF1
:1046B000732E4D61676672657120202020093D20B0
:1046C00025690A00424D583035355F496E697428B6
:1046D000293A20706172616D732E696E69744D6143
:1046E0006720202020093D2025690A00424D5830CE
:1046F00035355F496E697428293A20706172616DA1
:10470000732E4D616749442020202020093D20253B
:10471000690A0000424D583035355F4143435F47D9
:10472000657444617461282900000000424D5830CE
:1047300035355F4143435F4765744461746128299F
:104740003A2078203D2025690A000000424D58306B
:1047500035355F4143435F4765744461746128297F
:104760003A2079203D2025690A000000424D58304A
:1047700035355F4143435F4765744461746128295F
:104780003A207A203D2025690A0000004255535FF7
:10479000496E697428293A20696E697469616C6987
:1047A0007A656420737463333130352020093D20ED
:1047B00025690A004255535F496E697428293A20D9
:1047C000696E697469616C697A65642072763330E8
:1047D0003439202020093D2025690A004255535FC5
:1047E000496E697428293A20696E697469616C6937
:1047F0007A656420746662733437313120093D2054
:1048000025690A004255535F496E697428293A2088
:10481000696E697469616C697A656420626D78306B
:1048200035355F61636320203D2025690A00000063
:104830004255535F496E697428293A20696E69743C
:1048400069616C697A656420626D783035355F67BF
:1048500079726F203D2025690A0000004255535FA0
:10486000496E697428293A20696E697469616C69B6
:104870007A656420626D783035355F6D6167202020
:104880003D2025690A0000004255535F496E697456
:1048900028293A20696E697469616C697A656420B7
:1048A0006164786C3337352020093D2025690A0082
:1048B0004255535F496E697428293A20696E6974BC
:1048C00069616C697A6564206E72663531343232A2
:1048D00020093D2025690A000101000000000000B8
:1048E000DDFB0500010000000500000000000000E5
:1048F00040420F0005010100000000000000000020
:10490000050000000000000040420F00050101000A
:1049100000030000000000004158203D20256900F0
:10492000204159203D2025690000000020415A20E7
:104930003D2025690A0000004758203D20256900D8
:10494000204759203D2025690000000020475A20BB
:104950003D2025690A000000000102030405060746
:1049600008090A0B430000001C00002000000000A2
:104970000000000000000000000000000000000037
:104980000000000000000000000000000000000027
:104990000000000000000000000000000000000017
:1049A0000000000000000000000000000000000007
:1049B00000000000000000000000000000000000F7
:1049C000000000000000000000000000232D302B3C
:1049D0002000686C4C006566674546470030313200
:1049E0003334353637383941424344454600303157
:1049F00032333435363738396162636465660000B6
:044A000000000000B2
:084A040038B7FF7F010000003C
:104A0C00006CDC020080000000061B0000000006A9
:104A1C0006060F07000C0400000000000000000058
:104A2C006C4900008C490000AC49000000000000FB
:104A3C0000000000000000000000000064490000BD
:104A4C00000000000000000000000000000000005A
:104A5C00000000000000000000000000000000004A
:104A6C00000000000000000000000000000000003A
:104A7C000000000000000000000000001C000020EE
:0C4A8C0005010000E10000000000000037
:04000003000001B147
:00000001FF
